S01A00002E2E2F7034645F73656E736F725F6E6F64652E7372656379
S11300000030002091040000F5040000F904000011
S113001000000000000000000000000000000000DC
S1130020000000000000000000000000FD040000CB
S113003000000000000000000105000005050000AC
S1130040090500000D05000011050000150500005C
S1130050F1040000F1040000F1040000DD240000BC
S1130060190500001D0500002105000025050000FC
S1130070290500002D05000031050000F1040000F1
S1130080F1040000F1040000F1040000F104000098
S1130090F1040000F1040000F10400003505000043
S11300A0F1040000F1040000F1040000F104000078
S11300B0F1040000F1040000F1040000F104000068
S1130400FFFFFFFFFFFFFFFFFFFFFFFFFEFFFFFFF9
S1130410402292029A1A92467047C046174B002B0C
S113042000D1134B9D46FFF7F3FF00218B460F4687
S11304301348144A121A03F0DFFD0E4B002B00D0B0
S113044098470D4B002B00D0984700200021040052
S11304500D000D48002802D00C4800E000BF03F056
S1130460D3FD2000290002F093FA03F07FFDC0467B
S11304700000080000000000000000000030002020
S11304805CF0FF1F24F2FF1F0000000000000000CA
S113049072B60E480E4901600A6882F308880D4856
S11304A080470D490D4A0E4B9B1A03DD043BC85887
S11304B0D050FBDC0B490C4A521A03DD0020885053
S11304C0043AFCDA62B609488047000008ED00E00F
S11304D000000000213300000455000000F0FF1F5D
S11304E05CF0FF1F5CF0FF1F24F2FF1F1D040000DF
S11304F01148004711480047114800471148004778
S11305001148004711480047114800471148004767
S11305101148004711480047114800471148004757
S11305201148004711480047114800471148004747
S11305301148004711480047F1040000F504000089
S1130540F9040000FD040000010500000505000099
S1130550F1040000F1040000F1040000F1040000C3
S1130560551F0000751F0000F1040000F104000095
S1130570510E00005512000079120000F104000031
S11305800023C25C0133002AFBD1581E70470000CF
S113059003B47146490840004900095E49008E448D
S11305A003BC7047002243088B4274D303098B4277
S11305B05FD3030A8B4244D3030B8B4228D3030C2F
S11305C08B420DD3FF22090212BA030C8B4202D3D1
S11305D01212090265D0030B8B4219D300E0090AF9
S11305E0C30B8B4201D3CB03C01A5241830B8B4202
S11305F001D38B03C01A5241430B8B4201D34B03EB
S1130600C01A5241030B8B4201D30B03C01A52414F
S1130610C30A8B4201D3CB02C01A5241830A8B42D4
S113062001D38B02C01A5241430A8B4201D34B02BD
S1130630C01A5241030A8B4201D30B02C01A524121
S1130640CDD2C3098B4201D3CB01C01A52418309D5
S11306508B4201D38B01C01A524143098B4201D30F
S11306604B01C01A524103098B4201D30B01C01A3A
S11306705241C3088B4201D3CB00C01A52418308B4
S11306808B4201D38B00C01A524143088B4201D3E1
S11306904B00C01A5241411A00D201465241104641
S11306A07047FFE701B5002000F0F0F802BDC04636
S11306B00029F7D076E7704703460B437FD4002226
S11306C043088B4274D303098B425FD3030A8B42E2
S11306D044D3030B8B4228D3030C8B420DD3FF224C
S11306E0090212BA030C8B4202D31212090265D01A
S11306F0030B8B4219D300E0090AC30B8B4201D3CD
S1130700CB03C01A5241830B8B4201D38B03C01A13
S11307105241430B8B4201D34B03C01A5241030B8A
S11307208B4201D30B03C01A5241C30A8B4201D33B
S1130730CB02C01A5241830A8B4201D38B02C01AE6
S11307405241430A8B4201D34B02C01A5241030A5D
S11307508B4201D30B02C01A5241CDD2C3098B4242
S113076001D3CB01C01A524183098B4201D38B01BF
S1130770C01A524143098B4201D34B01C01A524162
S113078003098B4201D30B01C01A5241C3088B42A7
S113079001D3CB00C01A524183088B4201D38B0092
S11307A0C01A524143088B4201D34B00C01A524134
S11307B0411A00D201465241104670475DE0CA0F0B
S11307C000D04942031000D34042534000229C46CB
S11307D003098B422DD3030A8B4212D3FC228901D5
S11307E012BA030A8B420CD3890192118B4208D3AB
S11307F0890192118B4204D389013AD0921100E00D
S11308008909C3098B4201D3CB01C01A5241830920
S11308108B4201D38B01C01A524143098B4201D34D
S11308204B01C01A524103098B4201D30B01C01A78
S11308305241C3088B4201D3CB00C01A52418308F2
S11308408B4201D38B00C01A5241D9D243088B4248
S113085001D34B00C01A5241411A00D201466346EB
S113086052415B10104601D34042002B00D549424F
S1130870704763465B1000D3404201B5002000F08E
S113088005F802BD0029F8D016E770477047C04646
S11308900448054B10B5834203D0044B002B00D011
S11308A0984710BD5CF0FF1F5CF0FF1F00000000C4
S11308B006480749091A8B10C90FC91810B5491001
S11308C003D0044B002B00D0984710BD5CF0FF1FF1
S11308D05CF0FF1F0000000010B5074C2378002BCC
S11308E009D1FFF7D5FF054B002B02D0044800E0E7
S11308F000BF0123237010BD5CF0FF1F0000000047
S1130900DC540000054B10B5002B03D00449054806
S113091000E000BFFFF7CCFF10BDC04600000000A0
S113092060F0FF1FDC54000080B584B000AF786035
S11309307B681B0C084A94466344FB60FB68196897
S11309407B681B041B0C01229A40FB680A431A6053
S1130950C046BD4604B080BD0070044080B584B07C
S113096000AF78600023FB6006E00D4A7B68934289
S113097006D0FB680133FB60FB68002BF5D000E078
S1130980C046FB68002B05D0064B074A0748902158
S113099002F030F9FB681800BD4604B080BDC046C3
S11309A000A00640F8480000485100001C4900001F
S11309B0B0B58CB000AFF860B9607A60BB68002B4A
S11309C005D18F4B8F4A9048D72102F013F9BB68A9
S11309D01B68002B05D18D4B8A4A8B48D82102F025
S11309E009F92C23FB1800221A8000237B62BB68C0
S11309F01B68BB6104233B625AE0BB681B683A6A0C
S1130A00534319007868FFF7CDFD03001A002A212B
S1130A107B181A800A00BB181B88002B02D1BB1854
S1130A2001221A802A257B191B883A6A534319002C
S1130A307868FFF7B7FD03007B61BB681B687A69C0
S1130A40D31AFB61BB681C687B191B8801331A002D
S1130A503B6A534319007868FFF7A4FD0300E31AC7
S1130A60FA699A4213D9BB681C687B191B88013345
S1130A701A003B6A534319007868FFF793FD03009B
S1130A80E31AFB617B191A887B1901321A80FA690F
S1130A90BB699A4209D8FB69BB613B6A7B622C2320
S1130AA0FB182A22BA1812881A803B6A01333B6267
S1130AB03B6A202BA1D9BB681B6864211800FFF78F
S1130AC071FD03001A0013005B009B18BA699A4277
S1130AD001D94F4B90E0FB681800FFF73FFF4D4BE7
S1130AE01800FFF721FFFB68DB78DBB20C2293438D
S1130AF0DAB2FB68DA707B6A032B0AD97B6A072BAC
S1130B0007D8FB68DB7ADBB202221343DAB2FB6854
S1130B10DA72FB689B7ADBB21F229343DAB27B6AF8
S1130B20DBB2013BDBB21343DAB2FB689A72FB68B7
S1130B309B7ADBB21F229343DAB22C217B181B88E9
S1130B401B0A9BB2DBB21343DAB2FB681A707B1840
S1130B501B88DAB2FB685A70FB689B78DAB22F20E4
S1130B603B1813218A431A70BB681B79002B09D0E8
S1130B70BB681A793B181B781343DAB23B1810216F
S1130B800A431A70FB682F203A1812789A70FB688F
S1130B901B78DBB220229343DAB2FB681A70FB683D
S1130BA01B78DAB2BB685B795B01DBB220210B40B6
S1130BB0DBB21343DAB2FB681A703B18FA68D278D6
S1130BC01A70BB689B79002B05D03B183A18127831
S1130BD008210A431A70BB68DB79002B06D02F2248
S1130BE0BB18BA18127804210A431A70FB682F2222
S1130BF0BA181278DA7000231800BD460CB0B0BDE4
S1130C008C4900005C5100001C490000944900001C
S1130C10B50400000A00341080B582B000AF7860DB
S1130C207B68002B06D10D4B0D4A5621FF310D4830
S1130C3001F0E0FF7B68E12252021A607B68002227
S1130C401A717B6800225A717B6800229A717B6852
S1130C500022DA71C046BD4602B080BD8C49000056
S1130C60685100001C49000080B584B000AF786072
S1130C707B681B79DBB21A007B685B79DBB21B02F1
S1130C801343FB60FB681800BD4604B080BD000040
S1130C9080B584B000AF786039600B217B180022E6
S1130CA01A707B181B78DBB20133DAB27B181A7026
S1130CB03A6880231B02134006D07B6880225A7155
S1130CC03B68154A13403B603A688023DB011340BC
S1130CD006D07B6840225A713B68104A13403B603F
S1130CE03B681F2213400AD03B68DBB21F2213402B
S1130CF0DAB27B681A713B681F2293433B603B68FE
S1130D00002B02D0064BFB6001E00023FB60FB6874
S1130D101800BD4604B080BDFF7FFFFFFFBFFFFF8B
S1130D20B404000080B584B000AFF860B9607A60A4
S1130D30BB68002B12D10E4B0E4A0F490F4801F02D
S1130D4059FFC046FB681B79DBB25BB2002BF9DAB2
S1130D50BB685A1CBA601A78FB68DA717B685A1E41
S1130D607A60002BEDD1C046C046BD4604B080BDBC
S1130D708449000080510000090200001C49000061
S1130D8080B586B000AFF860B9607A60BB68002BAC
S1130D9047D1294B294A86218900294801F02AFF95
S1130DA0FB681800FFF760FF03007B617B69082282
S1130DB0134007D0FB6808211800FFF769FF972349
S1130DC0DB0034E07B690422134006D0FB68042175
S1130DD01800FFF75DFF1B4B29E07B6902221340DB
S1130DE006D0FB6802211800FFF752FF164B1EE0E5
S1130DF07B690122134006D0FB6801211800FFF72C
S1130E0047FF124B13E0FB681B79DBB21A00202367
S1130E101340C5D0BB685A1CBA60FA68D279D2B202
S1130E201A707B685A1E7A60002BECD100231800DC
S1130E30BD4606B080BDC046844900009451000000
S1130E401C490000B9040000BA040000BB040000FF
S1130E5080B500AF044B1A68044B1B6804481900A2
S1130E609047C046BD4680BD7CF0FF1F78F0FF1F51
S1130E7000A0064080B584B000AF78607B681B0C8E
S1130E80084A94466344FB60FB6819687B681B044A
S1130E901B0C01229A40FB680A431A60C046BD46F7
S1130EA004B080BD0070044080B584B000AF7860A9
S1130EB00323BB600023FB6009E00F4BFA68920038
S1130EC0D3587A689A4207D0FB680133FB60FA680A
S1130ED0BB689A42F1D300E0C046FA68BB689A4204
S1130EE005D3064B064A0748A92101F083FEFB6897
S1130EF01800BD4604B080BDA8510000F4490000AC
S1130F00C0510000104A0000B0B586B000AFF860D0
S1130F10B9607A60BB68002B05D1714B714A724885
S1130F20D42101F067FEBB681B68002B05D16F4B11
S1130F306C4A6D48D52101F05DFE16243B19002250
S1130F401A801523FB1800221A7000233B61BB682A
S1130F501B681B0119007868FFF724FB03001A00C3
S1130F603B191A803B191B88002B02D13B19012223
S1130F701A8016257B191B881B0119007868FFF756
S1130F8011FB03001A00BB681B68D31A3B61BB68E2
S1130F901C687B191B8801331B0119007868FFF753
S1130FA001FB0300E31A3A699A4211D9BB681C6831
S1130FB07B191B8801331B0119007868FFF7F2FACB
S1130FC00300E31A3B617B191A887B1901321A80EA
S1130FD0BB681B6864211800FFF7E4FA03001A00D9
S1130FE013005B009B183A699A4201D9404B72E0A6
S1130FF0FB681800FFF758FF02003E4B9200D358DD
S11310001800FFF737FFFB68DB78DBB20C22934351
S1131010DAB2FB68DA70FB681B78DBB21F229343F9
S1131020DAB216217B181B881B0A9BB2DBB213436E
S1131030DAB2FB681A707B181B88DAB2FB685A7044
S1131040FB689B78DAB215203B1813218A431A7087
S1131050BB681B79002B09D0BB681A793B181B7835
S11310601343DAB23B1810210A431A70FB681520A7
S11310703A1812789A70FB681B78DBB220229343EB
S1131080DAB2BB685B795B01DBB220210B40DBB2D7
S11310901343DAB2FB681A703B18FA68D2781A70F4
S11310A0BB689B79002B05D03B183A1812780821AD
S11310B00A431A70BB68DB79002B06D01522BB18D3
S11310C0BA18127804210A431A70FB681522BA1858
S11310D01278DA7000231800BD4606B0B0BDC046D1
S11310E0784A0000D4510000104A0000804A0000F1
S11310F0F5030000B451000080B582B000AF786001
S11311007B68002B06D10D4B0D4A5E21FF310D4843
S113111001F070FD7B68E12252021A607B680022B4
S11311201A717B6800225A717B6800229A717B686D
S11311300022DA71C046BD4602B080BD784A000084
S1131140E0510000104A000080B584B000AF786020
S11311507B681B79DBB21A007B685B79DBB21B020C
S11311601343FB60FB681800BD4604B080BD80B526
S113117084B000AFF860B9607A600CE0C046FB68E8
S11311801B79DBB25BB2002BF9DABB685A1CBA607C
S11311901A78FB68DA717B685A1E7A60002BEDD1ED
S11311A0C046C046BD4604B080BD000080B586B0D0
S11311B000AFF860B9607A60BB68002B33D11F4B75
S11311C01F4A8F2189001F4801F014FDFB68180095
S11311D0FFF7BAFF03007B617B690822134001D04B
S11311E0194B26E07B690422134001D0174B20E001
S11311F07B690222134001D0154B1AE07B6901225E
S1131200134002D0FD239B0013E0FB681B79DBB283
S11312101A0020231340D9D0BB685A1CBA60FA685C
S1131220D279D2B21A707B685A1E7A60002BECD144
S113123000231800BD4606B080BDC046A84A000081
S1131240F8510000104A0000F1030000F20300000E
S1131250F303000080B500AF044B1A68044B5B68CD
S1131260044819009047C046BD4680BD8CF0FF1F5E
S113127080F0FF1F00B0064080B500AF044B1A6831
S1131280044B9B68044819009047C046BD4680BD86
S11312908CF0FF1F80F0FF1F00C0064080B584B0B3
S11312A000AFF860B960FB1D1A70FB1D1B78002BA2
S11312B005D10122BB689A40FB689A6004E00122D0
S11312C0BB689A40FB685A60C046BD4604B080BD06
S11312D080B584B000AFF860B9607A607B68002B99
S11312E005D1144B144A15484B2101F083FC7B684B
S11312F01B78002B0AD1FB685B690121BA68914015
S11313000A00D2431A40FB685A610FE07B685A789E
S1131310B968FB681800FFF7C1FFFB685A6901212F
S1131320BB6899400B001A43FB685A61C046BD462E
S113133004B080BD6C4B00000C5200000C4B00004C
S113134080B584B000AF78607B681B0C084A944673
S11313506344FB60FB6819687B681B041B0C012257
S11313609A40FB680A431A60C046BD4604B080BD7B
S11313700070044080B584B000AF78600023FB6047
S113138006E00D4A7B68934206D0FB680133FB609C
S1131390FB68002BF5D000E0C046FB68002B05D0AD
S11313A0064B074A07484E2101F024FCFB6818004D
S11313B0BD4604B080BDC04600000440984B000008
S11313C01C520000BC4B000080B584B000AF7860B4
S11313D039603B68002B05D11F4B204A204855211A
S11313E001F008FC7B681800FFF7C4FF0300FB60F2
S11313F01C4B1800FFF7A4FF3B681B785B0002221C
S11314001A403B68DB789B0004210B401A433B687D
S11314109B78DB0008210B401A433B685B781B0177
S113142030210B401A437B681A603B689B79DB00D0
S113143078221A403B681B799B0004210B401A4315
S11314403B685B79190003230B401A437B685A609D
S1131450C046BD4604B080BD1C4C000030520000A4
S1131460BC4B00000000381080B582B000AF78603B
S11314707B68002B05D10F4B0F4A10487F2101F0E8
S1131480B9FB7B6800221A707B6800225A707B6863
S113149000229A707B680022DA707B6801221A713C
S11314A07B6801225A717B6800229A71C046BD464E
S11314B002B080BD1C4C00003C520000BC4B00003C
S11314C080B582B000AF3B1D074A12881A8072B6FD
S11314D0C046BFF36F8FC0463B1D180001F0ACFF40
S11314E0C046BD4602B080BD244C000080B582B029
S11314F000AF3B1D00221A703B1D00225A703B1D99
S1131500180001F099FF62B6C046BFF36F8FC04662
S1131510C046BD4602B080BD80B584B000AF7860DF
S11315200F203B187A6852781A703B183A181278D0
S113153007218A431A703B183A18127803210A4388
S11315401A707B683A1812785A700F4B1A690E4B4E
S113155004210A431A617B685B78BFF34F8FC0464E
S113156030BFC046BFF36F8FC0467B685B78DBB289
S11315701A000823134001D0044B00E00023180094
S1131580BD4604B080BDC04600ED00E03C0F000045
S113159080B584B000AF78607B681B0C084A944621
S11315A06344FB60FB6819687B681B041B0C012205
S11315B09A40FB680A431A60C046BD4604B080BD29
S11315C00070044080B582B000AF786039603A683A
S11315D080235B01134009D07B689B79DAB23B68B6
S11315E01B0ADBB21343DAB27B689A713A68802330
S11315F0DB01134009D07B689B79DAB23B681B0A94
S1131600DBB21343DAB27B689A713B68DAB27B6867
S1131610DA70C046BD4602B080BD000080B584B01B
S113162000AF78600023FB6009E00E4BFA6892007B
S1131630D3587A689A4206D0FB680133FB60FB6892
S1131640012BF2D900E0C046FB68012B05D9064BFB
S1131650064A0748B52101F0CDFAFB681800BD46DB
S113166004B080BDD4520000284C0000E4520000B5
S11316704C4C000080B584B000AF78603960002322
S1131680FB603B681022134005D07B681022DA709F
S1131690064BFB6005E03B680122134001D0044B7C
S11316A0FB60FB681800BD4604B080BD4F04000019
S11316B04E04000080B582B000AF786039607B686A
S11316C0DB78DBB21A001023134006D17B689B78C9
S11316D0DBB21A002023134006D00A4B1B6839687A
S11316E07A681000984705E0074B1B6839687A68E8
S11316F010009847BFF34F8FC046C046BD4602B0A6
S113170080BDC04698F0FF1F9CF0FF1F80B586B0D7
S113171000AFF860B9607A60BB68002B02D07B68C8
S1131720002B06D1364B374AED214900364801F0EB
S113173061FAFB681800FFF771FF0200334B920057
S1131740D3581800FFF724FFFB6800221A70FB68C7
S113175000225A70FB6800229A70FB68FF22DA703C
S1131760FB6800225A71FB6850229A71FB680022C0
S1131770DA71FB689B78DBB27F221340DAB2FB6834
S11317809A70234AFB6811001800FFF71BFFBB681F
S113179059687A68FB68180000F064F817203B1851
S11317A0FA6892791A703B183A1812787F210A4025
S11317B01A70BB685B78DB01D9B23B183A1812780F
S11317C00A431A703B183A1812780F218A431A7088
S11317D0BB681B7A0F221340D9B23B183A1812780F
S11317E00A431A70FB683A1812789A71BB681B781E
S11317F0DB01DAB2FB689A70C046BD4606B080BD14
S1131800AC4C0000F45200004C4C0000DC520000D0
S11318101250000080B582B000AF78607B68002B66
S113182005D10B4B0B4A0C490C4801F0E3F97B68DA
S11318300B4A5A607B6800225A707B6800221A7235
S11318407B6801221A70C046BD4602B080BDC04606
S1131850C84C000004530000230200004C4C00005C
S1131860A086010080B58CB000AFF860B9607A60E2
S113187001235B42BB6200237B6200233B621F2384
S1131880FB1800221A704BE01F23FB181B7801225F
S11318909A401300BB611E23FB1800221A7032E029
S11318A01E23FB181A782B4B5200D35A1A00BB691B
S11318B0534319007868FEF775FE03007B61BA682C
S11318C07B699A4204D9BA687B69D31AFB6203E044
S11318D07A69BB68D31AFB62FA6ABB6A9A420CD271
S11318E01F23FB181B787B621E23FB181B783B62AB
S11318F0FB6ABB62FB6A002B0BD01E22BB18BA1812
S1131900127801321A701E23FB181B783F2BC7D99B
S113191000E0C0461F22BB18BA18127801321A70B0
S11319201F23FB181B78022B02D8BB6A002BABD1F8
S11319307B6ADBB29B01DAB23B6ADBB23F210B402C
S1131940DBB21343DAB2FB685A70C046BD460CB032
S113195080BDC0465452000080B584B000AF7860AA
S113196008001100FB1C021C1A70BB1C0A1C1A7014
S11319700023FB607B68180000F0BAF80300BB602A
S1131980BB682022134002D00F4BFB6016E07B683B
S11319909B78DBB230221343DAB27B689A70FB1C6B
S11319A01B78DB18DAB2BB1C1B78012B01D1012395
S11319B000E000231343DAB27B681A71FB68180055
S11319C0BD4604B080BDC0464C04000080B586B05E
S11319D000AF786008001100FB1C021C1A70BB1CCD
S11319E00A1C1A7000237B617B68180000F080F8E1
S11319F00300FB601323FB1806221A70FB682022E5
S1131A00134009D07B689B78DBB21A002023134073
S1131A1002D11D4B7B6131E00B217B187A6852782F
S1131A201A707B181B783F221340DAB27B685A7015
S1131A307B689B78DBB214221343DAB27B689A701A
S1131A407B687A1812785A7001E0C046C0461322A7
S1131A50BB181B78BA18591E1170002BF5D1FB1C4A
S1131A601B78DB18DAB2BB1C1B78012B01D10123D4
S1131A7000E000231343DAB27B681A717B69180013
S1131A80BD4606B080BDC0464C04000080B584B09D
S1131A9000AF78600023FB600A23FB180122524246
S1131AA01A807B689B78DBB238229343DAB27B6876
S1131AB09A70C0467B68DB78DBB21A00202313409F
S1131AC009D00A217B187A181288013A1A807B18E7
S1131AD01B88002BEED10A23FB181B88002B02D194
S1131AE08A23DB00FB60FB681800BD4604B080BDA0
S1131AF080B584B000AF78607B68DB78DBB2FB60D4
S1131B007B689B79DBB21A004023134004D0FB6846
S1131B108022D2011343FB607B689B79DBB21A00FD
S1131B201023134004D0FB68802252011343FB604E
S1131B30FB681800BD4604B080BD000080B586B0C7
S1131B4000AFF860B9607A603B6000237B611323C7
S1131B50FB1800221A70C046FB68DB78DBB25BB26C
S1131B60002BF9DAFB680222DA70FB689B78DBB29F
S1131B7010221343DAB2FB689A7030E0BB685A1C37
S1131B80BA601A78FB681A71C046FB68DB78DBB26E
S1131B901A0002231340F8D013217B18FA68D27874
S1131BA01A70FB680222DA707B181B78102213402B
S1131BB004D0FB681022DA70194B7B611323FB18E5
S1131BC01B780122134007D07B68002B04D0FB68EC
S1131BD00122DA70134B7B617B69002B05D17B6892
S1131BE05A1E7A60002BC9D100E0C0467B69002BE5
S1131BF003D13B680422134003D07B69094A934212
S1131C0008D1FB680222DA70FB681800FFF73EFF78
S1131C1003007B617B691800BD4606B080BDC046E9
S1131C204F0400004E04000080B586B000AFF86099
S1131C30B9607A603B6000237B6113217B1800222A
S1131C401A707B181B78DBB20133DAB27B181A7076
S1131C50C046FB68DB78DBB25BB2002BF9DAFB68C9
S1131C600222DA70FB689B78DBB218229343DAB263
S1131C70FB689A707B68012B07D1FB689B78DBB209
S1131C8008221343DAB2FB689A70FB681B79DAB254
S1131C901323FB181A7032E0C046FB68DB78DBB212
S1131CA01A0002231340F8D0FB680222DA707B6822
S1131CB0002B12D13B680422134006D1FB681800A4
S1131CC0FFF7E4FE03007B6107E0FB689B78DBB26F
S1131CD010221343DAB2FB689A707B68012B07D198
S1131CE0FB689B78DBB208221343DAB2FB689A7074
S1131CF0BB685A1CBA60FA681279D2B21A707B684F
S1131D005A1E7A60002BC7D17B691800BD4606B005
S1131D1080BD000080B584B000AF786039603B6856
S1131D20002B05D1844B854A8549864800F062FF23
S1131D300F23FB183A6852791A700023BB60824A59
S1131D407B6811001800FFF73DFCC0467B68DB7818
S1131D50DBB25BB2002BF9DA3B681B7B002B07D0AC
S1131D603B685B79012B03D10F23FB1800221A7007
S1131D703B681B68022213400BD03B6819790F2380
S1131D80FB181A787B681800FFF720FE0300BB607D
S1131D900AE03B6819790F23FB181A787B6818004E
S1131DA0FFF7DAFD0300BB60BB68002B01D0BB6802
S1131DB0BEE0C0467B68DB78DBB21A000223134026
S1131DC0F8D07B68DB78DBB21A007B68110018005E
S1131DD0FFF750FC0300BB60BB68002B0BD0BB6853
S1131DE05A4A934205D15A4BBB607B681800FFF7EF
S1131DF04DFEBB689CE03B681B7B002B00D170E070
S1131E007B680222DA703B681B7B013BDAB23B68D9
S1131E101A733B689A683B681B7BDB00DA4013004B
S1131E20DAB27B681A71C0467B68DB78DBB21A00D1
S1131E3002231340F8D07B68DB78DBB21A007B689E
S1131E4011001800FFF716FC0300BB60BB68002BF1
S1131E5009D0BB683D4A934203D17B681800FFF761
S1131E6015FEBB6864E03B681B7B002B02D0BB689B
S1131E70002BC5D03B685B79012B32D17B680222F1
S1131E80DA703B6819797B6801221800FFF79EFD20
S1131E900300BB60BB68002B01D0BB6848E0C046B0
S1131EA07B68DB78DBB21A0002231340F8D07B682E
S1131EB0DB78DBB21A007B6811001800FFF7DAFB4D
S1131EC00300BB60BB68002B0BD0BB681F4A934266
S1131ED005D11F4BBB607B681800FFF7D7FDBB68BB
S1131EE026E03B685B79002B0ED13B685B69002BD5
S1131EF00AD03B6819693B685A693B681B68786873
S1131F00FFF71CFE0300BB603B685B79012B0ED11D
S1131F103B685B69002B0AD03B6819693B685A69C6
S1131F203B681B687868FFF77FFE0300BB60BB68F3
S1131F301800BD4604B080BDD84C000020530000FA
S1131F40950300004C4C0000125000004E040000A9
S1131F505104000080B500AF044B1B68044A19000B
S1131F601000FFF7A7FBC046BD4680BD90F0FF1FE1
S1131F700060064080B500AF044B5B68044A19005A
S1131F801000FFF797FBC046BD4680BD90F0FF1FD1
S1131F900070064080B584B000AF78607B681B0C8D
S1131FA0084A94466344FB60FB6819687B681B0419
S1131FB01B0C01229A40FB680A431A60C046BD46C6
S1131FC004B080BD0070044080B584B000AF786078
S1131FD00023FB6006E00D4A7B68934206D0FB6851
S1131FE00133FB60FB68002BF5D000E0C046FB68C2
S1131FF0002B05D0064B074A0748462100F0FAFD9E
S1132000FB681800BD4604B080BDC04600B0034064
S1132010384D00003C5300005C4D000080B584B096
S113202000AF786039603B68002B05D13F4B404AD4
S113203040484D2100F0DEFD7B681800FFF7C4FF27
S11320403D4B1800FFF7A6FF3B685B781A0003239B
S11320501A403B681B799B000C210B401343FB6027
S11320603B685B79042B03D0FB6810221343FB60AD
S11320703B68DB785B0160221340FA681343FB6022
S11320803B68DB79002B03D0FB6880221343FB60A1
S11320907B68FA689A607B68DB680F229343FB6075
S11320A03B685B79042B07D03B685B791A000323F8
S11320B01340FA681343FB603B689B79002B03D001
S11320C0FB6804221343FB603B689B78002B03D01E
S11320D0FB6808221343FB607B68FA68DA607B685C
S11320E01B6A03229343FB603B681B781A0003239B
S11320F01340FA681343FB607B68FA681A623B6812
S11321001B7A002B06D07B685B6A08221A437B6823
S11321105A6206E07B685B6A082293431A007B6874
S11321205A62C046BD4604B080BDC046BC4D0000E6
S1132130505300005C4D00001B003C1080B582B081
S113214000AF78607B68002B05D1124B124A13480C
S11321508D2100F04FFD7B6800221A707B680322FA
S11321605A707B6801229A707B680322DA707B685C
S113217001221A717B6804225A717B6800229A71C9
S11321807B680022DA717B6800221A72C046BD4661
S113219002B080BDBC4D00005C5300005C4D0000EB
S11321A080B584B000AF78600A00FB1C1A707B68AD
S11321B05B6A07229343FB60FB1C1B78042B08D04B
S11321C0FB1C1B7803221A40FB68134304221343AD
S11321D0FB607B68FA685A62C046BD4604B080BDA5
S11321E080B586B000AFF860B9607A60BB68012B37
S11321F006D9174B174A5421FF31174800F0FAFC4F
S11322007B68002B06D1154B124AAA2149001248BB
S113221000F0F0FC7B681B681F2213407B617B6825
S11322205B79002B03D07B69202213437B617B689D
S11322301B79002B03D07B69402213437B61FB682D
S1132240BA6892007969D150C046BD4606B080BDD7
S1132250CC4D0000745300005C4D0000BC4D0000E8
S113226080B584B000AF786039603B68012B06D933
S11322700C4B0D4A6A21FF310C4800F0BBFC0023D3
S1132280FB607B683A689200D3588022134003D0E5
S1132290FB6880221343FB60FB681800BD4604B052
S11322A080BDC046CC4D00008C5300005C4D000046
S11322B080B582B000AF0200FB1D1A70FB1D1B78B5
S11322C01A001F231A40044B012191400A001A608E
S11322D0C046BD4602B080BD00E100E080B582B0DA
S11322E000AF786039607B683A68DA60C046BD4602
S11322F002B080BD80B584B000AF786039607B687F
S11323001B68FB60FB6880229343FB60FA683B68B0
S11323101343FB607B68FA681A60C046BD4604B08C
S113232080BD80B584B000AF786039607B681B687D
S1132330FB60FB6880229343FB603B68DA43FB68E5
S11323401340FB607B68FA681A60C046BD4604B05F
S113235080BD80B582B000AF786039607B681A6850
S11323603B681A437B681A60C046BD4602B080BD14
S113237080B582B000AF786039603B68002B06D12D
S1132380074B084A2621FF31074800F033FC3B681D
S11323905A1E7B689A60C046BD4602B080BDC046E6
S11323A0EC4D0000A8530000F84D000080B584B047
S11323B000AF78607B681B68FB60FB6880229343F6
S11323C0FB60FB6801221343FB607B68FA681A60B8
S11323D0C046BD4604B080BD80B584B000AF78600F
S11323E07B681B68FB60FB6880229343FB60FB688F
S11323F001229343FB607B68FA681A60C046BD46BD
S113240004B080BD80B584B000AFF860B960FB1D36
S11324101A70FB1D1B78002B0CD0FB681B79DAB2F9
S11324200121BB6899400B00DBB21343DAB2FB68AD
S11324301A710DE0FB681B79DBB20121BA68914087
S11324400A00D2B2D243D2B21340DAB2FB681A7194
S1132450C046BD4604B080BD80B582B000AF786090
S113246039607B68DB79DBB21A003B68DA40130021
S113247001221340DB07DB0FDBB21800BD4602B0BC
S113248080BD80B582B000AF78600A00FB1C1A7072
S11324907B68FA1C12781A70C046BD4602B080BD33
S11324A080B582B000AF786039603B68012B06D9F3
S11324B0074B084AFB214900074800F09BFB7B6857
S11324C03A6804329200D3581800BD4602B080BD69
S11324D0D44E0000C4530000F04E000080B500AF9D
S11324E00B4B00211800FFF7B7FF031E0DD0094B5B
S11324F040211800FFF715FF064B80211800FFF755
S113250028FF044B1800FFF767FFC046BD4680BD97
S113251000C007400000044080B582B000AF3B001B
S11325201800FEF7A1FF3B0001225A713B00012273
S11325301A713B000B4A19001000FEF745FF0A4AC6
S1132540084B11001800FFF713FF084B012200216C
S11325501800FFF757FF0720FFF7AAFEC046BD4645
S113256002B080BD000004408713000000C0074093
S113257080B500AF094B40211800FFF7BBFE074BA5
S11325801800FFF713FFFEF79BFF054B1800FEF73B
S1132590C3FFFEF7ABFFC046BD4680BD000004404C
S11325A000E0074080B584B000AFB9607A600F21C5
S11325B07B18021C1A70124B1A78124B1A71114BA9
S11325C001225A717B181A780E4B9A600D4B012226
S11325D01A730C4BBA681A610A4B7A685A61094B30
S11325E000221A60074B084A19001000FFF792FBFB
S11325F003005A425341DBB21800BD4604B080BD0B
S1132600A0F0FF1FA4F0FF1F0060064080B584B057
S113261000AF0200FB1D1A70BB1D0A1C1A700C21AE
S11326207B18BA1D12781A70124B1A78124B1A7151
S1132630114B00225A71FB1D1A780F4B9A600E4BF6
S113264001221A730C4B7A181A610B4B01225A613E
S1132650094B00221A60084B084A19001000FFF7C2
S113266059FB03005A425341DBB21800BD4604B083
S113267080BDC046A0F0FF1FA4F0FF1F006006400D
S113268090B587B000AF08243B191800FFF7C2F8D3
S11326903B19214A5A60022001F0F6F802003B1966
S11326A01E481900FFF732F800237B611AE0FB1D76
S11326B000221A701A4A7B69D3181A78194B1A70B7
S11326C0FB1D012219000D20FFF76CFF031E03D030
S11326D0FB1D1B78C72B09D0124B00221A707B6993
S11326E001337B617B69032BE1D900E0C0460D4BCC
S11326F01B78002B0BD000212A20FFF787FF012134
S11327000E20FFF783FF0D212A20FFF77FFFC0462D
S1132710BD4607B090BDC046A086010000600640DB
S1132720C0530000A0F0FF1F80B588B000AFF86070
S1132730B9607A60464B1B78002B0DD01423FB182C
S1132740062219000120FFF72DFF03001A000123C0
S11327505340DBB2002B09D0FB6800221A80BB680F
S113276000221A807B6800221A806EE01422BB18B3
S11327701B781B029BB2BA18527813439BB21BB24C
S11327801E22BA18002B00DA03339B101380142284
S1132790BB189B781B029BB2BA18D27813439BB226
S11327A01BB21C22BA18002B00DA03339B101380CF
S11327B01422BB181B791B029BB2BA18527913431B
S11327C09BB21BB21A22BA18002B00DA03339B10F7
S11327D013801E23FB1800229A5E13001B019B1A10
S11327E09B009B18DB001A00FA2399001000FDF7E8
S11327F063FF03001AB2FB681A801C23FB18002233
S11328009A5E13001B019B1A9B009B18DB001A00A5
S1132810FA2399001000FDF74FFF03001AB2BB68BA
S11328201A801A23FB1800229A5E13001B019B1ABC
S11328309B009B18DB001A00FA2399001000FDF797
S11328403BFF03001AB27B681A80BD4608B080BD06
S1132850A0F0FF1F80B584B000AF3B1D1800FFF748
S11328606DFC3B1D01221A703B1D074A1900100024
S1132870FFF7D4FB044B04211800FFF791FCC0467A
S1132880BD4604B080BDC04600B0034080B582B0F0
S113289000AF3B0017221A603B0000221A713B0074
S11328A00C481A000021FFF79BFCC046094B00218D
S11328B01800FFF7D5FC030080221340F6D0054B27
S11328C000211800FFF7ECFD03009BB21800BD4681
S11328D002B080BD00B0034080B582B000AF3B00C1
S11328E01800FEF709FC3B00962292011A603B0097
S11328F001229A713B000022DA71022000F0C4FF29
S113290002003B0003481900FEF7FEFAC046BD462C
S113291002B080BD00B00640F0B595B004AF05002C
S11329200C0010001900BB1D2A1C1A803B1D221C20
S11329301A80BB1C021C1A803B000A1C1A80BB1D97
S113294000255D5F3B1D00229B5EBA1C0021525E88
S1132950390009880C4C0C26B81902910192009395
S11329602B002200302101F015FB0300FB63FB6BFD
S1132970002B05DDFA6BBB1904481900FEF7F7FBC1
S1132980C046BD4611B0F0BDCC4F000000B00640BB
S1132990F0B587B002AF00F0A7F800F01BFD00F01F
S11329A011F92F4B180000F033FA2E4B05211800B3
S11329B000F02EFA0C217B1801221A707B180122D8
S11329C05A707B1828481A001D21FEF781FC274BFA
S11329D02A211800FFF755FDFFF79EFDFFF750FE73
S11329E0FFF738FFFFF778FFFFF7C2FD80239B0551
S11329F01D4A19001000FFF771FCBA1D082579194A
S1132A000A26BB191800FFF78FFE0E23FC18FFF7E8
S1132A103DFF03002380BB190022985E2C003B1964
S1132A200022995EBB1D00229A5E0E257B191B882D
S1132A30FFF772FFBB1900229B5E19003B190022AD
S1132A409B5E1A00BB1D00201B5E1C007B191B88AB
S1132A5007480093230000F0DBF9C046C4E7C046F2
S1132A60DC4F00001C50000000F10F4000E0074064
S1132A706450000080B584B000AF78607B681B0CA4
S1132A80084A94466344FB60FB6819687B681B042E
S1132A901B0C01229A40FB680A431A60C046BD46DB
S1132AA004B080BD0070044080B584B000AFF8600D
S1132AB0B960FB1D1A70FB68BA689200D358094AC2
S1132AC01A40FB1D1B781902E023DB000B401A435C
S1132AD01100FB68BA689200D150C046BD4604B0EC
S1132AE080BDC046FFF8FFFF80B500AF214B180042
S1132AF0FFF7C0FF204B1800FFF7BCFF1F4B02225B
S1132B0001211800FFF7D0FF1C4B022202211800FC
S1132B10FFF7CAFF1A4A1B4BD3581949072293439C
S1132B20184A8B50184B032200211800FFF7BCFFF2
S1132B30154B032201211800FFF7B6FF124B0122A7
S1132B401D211800FFF7B0FF0F4B00221E211800B3
S1132B50FFF7AAFF0C4B052218211800FFF7A4FF6A
S1132B60094B052219211800FFF79EFFC046BD46F8
S1132B7080BDC046090038100D0038100090044094
S1132B80007004401010000000D0044080B582B0F2
S1132B9000AF7860084A094BD358094A1A407B6849
S1132BA09906C0231B050B4003491343034A8B506A
S1132BB0C046BD4602B080BD007004400410000051
S1132BC0FFFFFFF380B582B000AF0120FFF7DEFF07
S1132BD000F044FE03007B607B68E122510204485C
S1132BE0032200F09BF8C046BD4602B080BDC0463B
S1132BF000A0064090B587B002AFF860B9607A6073
S1132C003B60BC68FA68396803487B68009323001A
S1132C1000F0FEF800BEFDE77850000080B582B0F9
S1132C2000AF78600A00FB1C1A70FB1C1B78002B99
S1132C3008D07B68DB78DBB208221343DAB27B6806
S1132C40DA7007E07B68DB78DBB208229343DAB200
S1132C507B68DA70C046BD4602B080BD80B582B0E4
S1132C6000AF78600A00FB1C1A70FB1C1B78002B59
S1132C7008D07B68DB78DBB204221343DAB27B68CA
S1132C80DA7007E07B68DB78DBB204229343DAB2C4
S1132C907B68DA70C046BD4602B080BD80B582B0A4
S1132CA000AF78600A00FB1C1A70FB1C1B78002B19
S1132CB008D07B68DB78DBB208221343DAB27B6886
S1132CC0DA7007E07B68DB78DBB208229343DAB280
S1132CD07B68DA70C046BD4602B080BD80B582B064
S1132CE000AF78600A00FB1C1A70FB1C1B78002BD9
S1132CF008D07B68DB78DBB204221343DAB27B684A
S1132D00DA7007E07B68DB78DBB204229343DAB243
S1132D107B68DA70C046BD4602B080BD90B589B00C
S1132D2000AFF860B9603B60FB1D1A70334B1B7831
S1132D30002B01D001235CE0304BFA1D12781A708D
S1132D40FB1D1B78062B05D050DC012B02D0032B76
S1132D5026D04BE0FA68294B5A6018243B19180016
S1132D60FEF7CAF921007B18BA681A60234B5B6826
S1132D703A6879181800FEF7C7F8204B5B68012100
S1132D801800FFF74BFF1D4B5B6801211800FFF78C
S1132D9065FF1A4B1A4A9A60184B1A4ADA6027E000
S1132DA0FA68164B5A6010243B191800FDF734FFDB
S1132DB021007B18BA681A60104B5B683A6879186E
S1132DC01800FDF7F5FD0D4B5B6801211800FFF7B6
S1132DD065FF0A4B5B6801211800FFF77FFF074B73
S1132DE0094A9A60054B094ADA6001E0042300E0CD
S1132DF000231800BD4609B090BDC046BCF0FF1FBB
S1132E006F110000AD110000250D0000810D0000C0
S1132E100FB480B582B000AF0C4B1B78002B02D1ED
S1132E2001235B420BE01423FB183B603A683969C9
S1132E30074B180000F0D6F803007B607B6818008D
S1132E40BD4602B080BC08BC04B01847BCF0FF1FEC
S1132E50552E000090B583B000AF7860094B1B7805
S1132E60002B02D101235B4208E0064B9C68054B12
S1132E705B68391D01221800A04701231800BD46D4
S1132E8003B090BDBCF0FF1F80B586B000AFB96041
S1132E907A603B600F23FB18021C1A70BB687B61CD
S1132EA00DE00F23FB181A783B6A100098473B6823
S1132EB01B685A1C3B681A607B6901337B617A6921
S1132EC07B689A42EDDBC046C046BD4606B080BD75
S1132ED080B58CB000AFF860B9607A603B600023C5
S1132EE0FB61FB68BB61BB695A1CBA6100221A70A2
S1132EF07B68002B35D0BB681B68FB62FB6A002B28
S1132F002BD1BB6930221A70FB690133FB61FB6969
S1132F1064E03968F86AFDF7CFFB03003B613B6965
S1132F203A685343FA6AD31ABB62BB6A002B06DAC7
S1132F30BB6A3B623B6A3022D31ABB6202E0BB6AC3
S1132F403033BB623B69FB62BB695A1CBA61BA6A23
S1132F50D2B21A70FB690133FB61FB6A002BD8D132
S1132F603BE0BB681B687B627B6A002B32D1BB6988
S1132F7030221A70FB690133FB61FB692EE03B6868
S1132F801900786AFDF70EFB03007B613B687A69E0
S1132F9053437A6AD31A3B623B6A092B03D83B6AD0
S1132FA030333B620BE03823FB181B78002B01D035
S1132FB0412300E061233A6A9B180A3B3B627B6928
S1132FC07B62BB695A1CBA613A6AD2B21A70FB6955
S1132FD00133FB617B6A002BD1D1FB691800BD462C
S1132FE00CB080BD90B59DB002AFF860B9607A6056
S1132FF000233B660023FB650023BB614A23FB18C7
S113300000221A7000233B61BB687B667BE17B6C0A
S1133010252B07D07A6CFB6810009847BB690133F5
S1133020BB616DE14B23FB1801221A7000237B6501
S11330300023BB651BE07B6E01337B667B6E1B78D4
S11330407B647B6C2F2B0DDD7B6C392B0ADC7A6D5A
S113305013009B009B185B001A007B6CD318303B59
S11330607B6504E07B6E013B7B660123BB65BB6D26
S1133070002BE0D006233B657B6E01337B667B6EC1
S11330801B782E2B24D100233B650023BB651BE05A
S11330907B6E01337B667B6E1B787B647B6C2F2B92
S11330A00DDD7B6C392B0ADC3A6D13009B009B18F9
S11330B05B001A007B6CD318303B3B6504E07B6EED
S11330C0013B7B660123BB65BB6D002BE0D002E0B6
S11330D07B6E013B7B667B6E01337B667B6E1B786C
S11330E07B647B6C642B1BD07B6C692B18D07B6C52
S11330F0662B15D07B6C462B12D07B6C782B0FD0B3
S11331007B6C582B0CD07B6C6F2B09D07B6C622BA7
S113311006D07B6C702B03D07B6C752B00D0ABE09E
S11331207B6C642B02D07B6C692B16D17B681A1DD7
S11331307A601B687B611423F9181C2438194B230B
S1133140FB181B7800930A230122FFF7C1FE03003A
S1133150FB653A19FB6DD3183B667B6C582B02D088
S11331607B6C782B1DD17B6C782B03D14B23FB1804
S113317000221A707B681A1D7A601B683B61102359
S1133180F9181C2438194B23FB181B7800931023BF
S11331900022FFF79DFE0300FB653A19FB6DD3186F
S11331A03B667B6C6F2B08D07B6C622B05D07B6CF1
S11331B0702B02D07B6C752B40D17B681A1D7A6012
S11331C01B683B617B6C752B1DD07B6C752B1FDCE6
S11331D07B6C702B12D07B6C702B19DC7B6C622B9C
S11331E007D07B6C6F2B13D14A23FB1808221A706B
S11331F00FE04A23FB1802221A700AE04A23FB1844
S113320010221A7005E04A23FB180A221A7000E003
S1133210C0464A23FB181A781023F9181C243819BD
S11332204B23FB181B78009313000022FFF750FE7A
S11332300300FB653A19FB6DD3183B667A6D1823BE
S1133240F818F96DFB68009303002020FFF71CFEBB
S11332503B6E002B54D00AE03B6E5A1E3A661B7834
S11332601A00FB6810009847BB690133BB613B6ED1
S11332701B78002BF0D143E07B6C632B0DD17B6872
S11332801A1D7A601B68DBB23B643A6CFB68100061
S11332909847BB690133BB6132E07B6C732B28D147
S11332A07B681A1D7A601B68FB64FB6C002B27D0BB
S11332B0FB6C1800FDF764F90300FB657A6D1823B5
S11332C0F818F96DFB68009303002020FFF7DCFD7C
S11332D00AE0FB6C5A1CFA641B781A00FB681000A5
S11332E09847BB690133BB61FB6C1B78002BF0D1A1
S11332F006E07A6CFB6810009847BB690133BB6138
S11333007B6E01337B667B6E1B787B647B6C002B4E
S113331000D07CE6BB691800BD461BB090BD000020
S113332080B500AF0B4B9B78DBB21A000823134027
S113333007D0084B9B78DBB2064A08210B43DBB26B
S11333409370054A88235B010021D150C046BD46D5
S113335080BDC04600D007400070044080B500AF77
S1133360034A044B0449D150C046BD4680BDC04603
S113337000700440441000000000031080B582B0C7
S113338000AF7860034B7A681A60C046BD4602B04D
S113339080BDC046CCF0FF1F80B582B000AF0200F4
S11333A0FB1D1A700A4B1B78DBB238229343DAB246
S11333B0FB1D1B78DB00DBB238210B40DBB2044978
S11333C01343DBB20B70C046BD4602B080BDC0469D
S11333D00040064080B500AFFFF7C0FF104B180057
S11333E000F0DAFC0F4B1800FFF7C8FF00231800A9
S11333F0FFF7D2FF0C4B1A000021002000F076FDED
S1133400022300210022180000F0E4FB074B1800FF
S113341000F0CEFA064B074A1A60C046BD4680BD8E
S1133420F853000000127A00EB530000F053000040
S113343000F0FF1F006CDC0280B584B000AF786040
S1133440184BFB607B681B78012B0DD17B685B7884
S1133450002B01D1782320E0FB681B688022120234
S11334601A43FB681A6017E0FB681B680E4A1A408F
S1133470FB681A607B685B78002B07D1FB681B68CC
S11334808022D2011A43FB681A6005E0FB681B68BE
S1133490064A1A40FB681A6000231800BD4604B0AF
S11334A080BDC0460C3000F0FF7FFFFFFFBFFFFF71
S11334B080B582B000AF7860084B1B68084A13409F
S11334C019007B689A04C0231B031A40034B0A4368
S11334D01A60C046BD4602B080BDC04600700440BC
S11334E0FFFFF3FF80B582B000AF7860084A094B54
S11334F0D358094A1A407B68190480235B020B40A5
S113350003491343034A8B50C046BD4602B080BDF5
S11335100070044004100000FFFFFEFF80B584B07B
S113352000AF786039600F203B187A6812781A70FF
S11335303B183A1812785F210A401A703B681978D0
S11335403B183A1812780A431A707B683A181278B2
S11335501A70C046BD4604B080BD80B584B000AFCB
S113356078600A00FB1C1A700F203B187A681278E6
S11335701A703B183A1812780F218A431A703B18B4
S11335803918FA1C097812780A431A707B683A18B9
S113359012781A70C046BD4604B080BD80B500AF35
S11335A0074B1B68002B05D1064B074A0748E1214E
S11335B0FFF720FB024B1B681800BD4680BDC046C8
S11335C0CCF0FF1FB850000000540000C4500000AD
S11335D080B582B000AFFFF7E1FF03007B607B683A
S11335E0002B01D17B6840E0224B1B78DBB2DB0867
S11335F0DAB2FB1C07210A401A70FB1C1B787A689C
S1133600DA4013007B601B4B5B78DBB21B09DAB238
S1133610BB1C03210A401A70BB1C1B78002B23D04F
S1133620FB1C1B78072B14D01BDC052B02DC002BA6
S113363003DA16E0062B04D013E07B685B097B6099
S113364012E07B6814211800FCF7ACFF03007B60D8
S11336500AE07B680C211800FCF7A4FF03007B60E0
S113366002E000237B60C0467B681800BD4602B0C0
S113367080BDC0460040064080B500AF0B4B9B792F
S1133680DBB21A000123134002D1094B1B6809E085
S1133690084B1A68054B1B7ADBB25B0807210B4009
S11336A0DA4013001800BD4680BDC0460040064005
S11336B004F0FF1F08F0FF1F80B500AF074B9B7994
S11336C0DBB21A001023134003D1FFF781FF03007C
S11336D001E0034B1B681800BD4680BD0040064056
S11336E004F0FF1F80B500AFFFF758FF0300180078
S11336F0BD4680BD80B584B000AF78607B680E4A5B
S1133700934204D80F23FB1800221A700CE07B6844
S11337100A4A934204D80F23FB1801221A7003E0CB
S11337200F23FB1802221A700F23FB181B781800B2
S1133730BD4604B080BDC0469798000000127A00D0
S113374080B500AF0B4B1B78DBB25BB2002B0DDAFC
S1133750094B1B68002B06D1084B094AAA214900D2
S11337600848FFF747FA044B1B6800E000231800E1
S1133770BD4680BD00500640CCF0FF1FB85000008D
S113378018540000C450000080B582B000AF1B4B39
S11337901B689B0C03221340032B22D025D8002B3B
S11337A002D0022B0ED020E0FFF7CAFF02008023D4
S11337B01B029A4203D180231B027B6018E0002382
S11337C07B6015E00E4B1B68002B06D10D4B0E4A97
S11337D0B42149000D48FFF70DFA094B1B687B60C3
S11337E006E0FA239B007B6002E000237B60C04676
S11337F07B681800BD4602B080BDC046007004401E
S1133800D0F0FF1F2451000030540000C4500000C9
S113381080B582B000AF0F4A0F4BD3581B0C012266
S1133820134002D0012B05D00CE000F019F903007D
S11338307B600AE000F082F903007B607B685B0830
S11338407B6002E000237B60C0467B681800BD46B5
S113385002B080BD007004400410000080B500AFC9
S113386000F0C2F8064A074BD3581B0F0F2213402F
S113387001331900FCF796FE03001800BD4680BD15
S1133880007004404410000080B584B000AF020012
S1133890FB1D1A70FB1D1B780D2B00D172E000DD9F
S11338A079E00B2B00D168E000DD74E00A2B00D135
S11338B05EE000DD6FE0092B55D000DD6BE0082BE6
S11338C04CD000DD67E0072B00D15FE000DD62E053
S11338D0062B3ED05FDC052B36D05CDC042B17D0E6
S11338E059DC012B02DC002B03DA54E0022B0FD04D
S11338F051E000F079F82C4A2C4BD3581B0F0F22BF
S1133900134001331900FCF74DFE0300FB6045E052
S113391000F06AF8244A254BD3581B0F0F2213409A
S113392001331900FCF73EFE0300FB601E4A1F4BE7
S1133930D3581B0C0722134001331900F868FCF715
S113394031FE0300FB6029E0FFF762FF0300FB6028
S113395024E0FFF719FF0300FB601FE000F0D6F836
S11339600300FB601AE000F0BDF80300FB6015E003
S113397000F076F80300FB6010E000F0DFF80300CD
S1133980FB600BE0FA239B00FB6007E0FFF7D8FE27
S11339900300FB6002E00023FB60C046FB681800E4
S11339A0BD4604B080BDC046007004404410000011
S11339B080B582B000AF786009497B685B68094ACA
S11339C08B507B681B781800FFF78CFD7B685B7855
S11339D01800FFF76DFDC046BD4602B080BDC0466D
S11339E0007004404410000080B582B000AF1B4B4F
S11339F09B79DBB29B08032213403B603B68032B9B
S1133A000FD03B68032B20D83B68022B18D03B68AF
S1133A10022B1AD83B68002B08D03B68012B0AD034
S1133A2013E000F08BF803007B6011E000F018F85D
S1133A3003007B600CE0FFF71FFE03007B6007E0E0
S1133A40FFF7ACFD03007B6002E000237B60C0460F
S1133A507B681800BD4602B080BDC04600400640E9
S1133A6080B582B000AF1D4B5B78DBB21A00022335
S1133A70134006D1194B9B79DBB21A002023134063
S1133A8001D0002326E0FFF717FE03007B607B686C
S1133A90002B01D17B681DE0104BDB78DBB25B09A6
S1133AA0DAB2FB1C03210A401A700C4BDB78DBB240
S1133AB0DB09DAB2BB1C01210A401A70FB1C19781D
S1133AC0BB1C1A78064B49008A185200D35A1A00B4
S1133AD07B6853431800BD4602B080BD00400640D9
S1133AE04854000080B500AF074B1B78DBB21A00C6
S1133AF00223134001D1002302E0FFF7BDFD0300C0
S1133B001800BD4680BDC0460040064080B582B066
S1133B1000AFFFF7D1FD03007B607B68002B08D06A
S1133B20FFF762FF0300DB087A689A4201D87B68DA
S1133B3000E000231800BD4602B080BD80B582B00D
S1133B4000AF194B9B79DBB21A004023134001D11B
S1133B50002325E0FFF7C6FD03007B607B68002B94
S1133B6005D1124B124A13491348FFF743F80E4B81
S1133B701B79DBB21A001F23134001331900786844
S1133B80FCF710FD03007B60074B5B79DBB21A0086
S1133B901F23134018331A007B6853437B607B68F0
S1133BA01800BD4602B080BD0040064034510000FC
S1133BB05854000055020000C450000080B582B083
S1133BC000AF0200FB1D1A7000231800BD4602B0AE
S1133BD080BD000090B585B000AF0400080011005E
S1133BE0FB1D221C1A70BB1D021C1A707B1D0A1CB3
S1133BF01A70404B9B79DBB29B0803221340FB6095
S1133C003C4B9B79DAB20B203B1801210A401A7015
S1133C10384B1B7ADBB25B08DAB20A243B19072162
S1133C200A401A707A1D3B1912781B789A422ED0DA
S1133C303B181B78012B19D1FB68012B06D02D4BA7
S1133C401B78DBB21A00022313400FD0294B5B7898
S1133C50DBB2284A01218B43DBB25370C046254BAB
S1133C609B79DBB21A0001231340F8D1214B1B7A54
S1133C70DBB22F229343DAB27B1D1B78DB18DBB255
S1133C800E210B40DBB21B491343DBB20B72194B01
S1133C905B78DBB201229343DAB2BB1D1B780121AE
S1133CA00B40DBB213491343DBB24B70114B1B784F
S1133CB0DBB203229343DAB20E49FB1D1B78134394
S1133CC0DBB20B70FB68012B04D0FB1D1B780222B6
S1133CD013400AD0C046074B9B79DBB21A0001237C
S1133CE01A40BB1D1B789A42F5D100231800BD462B
S1133CF005B090BD0040064080B584B000AF786048
S1133D007B68002B06D1204B204ABE218900204825
S1133D10FEF770FF0F203B1800221A707B685B7857
S1133D201F221340D9B23B183A1812780A431A706A
S1133D30184A3B181B781371164B5B79DBB21F22B0
S1133D409343DAB27B689B781F210B40DBB21149A5
S1133D501343DBB24B710F4B1B79DAB27B681B78D0
S1133D601343DBB20B4A40210B43DBB21371C04651
S1133D70084B9B79DBB21A0040231340F8D0C046AD
S1133D80C046BD4604B080BD405100006C540000E4
S1133D90C450000000400640B0B584B000AF786065
S1133DA07B681B680F257C191800FFF7A3FC030030
S1133DB023707B681B791B4A19001000FFF7CDFBA9
S1133DC07B680633174A19001000FFF7A7FB164B50
S1133DD05B78DBB23C229343DAB27B191B781B017C
S1133DE0DBB230210B40DBB21343DAB27B685B7980
S1133DF00D491343DBB24B707B685B79002B0DD00C
S1133E00084B1B78DBB25BB2002B07DAC046064BCB
S1133E109B79DBB21A0002231340F8D0C046BD469A
S1133E2004B0B0BD005006400040064080B582B0EA
S1133E3000AF02003960FB1D1A703B68002B05D1EE
S1133E40254B264A26492748FEF7D4FE264B5B78A5
S1133E50DBB2254A02218B43DBB25370224B1B7821
S1133E60DBB23B221340DBB21F4980225242134390
S1133E70DBB20B70C0461C4B9B79DBB21A001C23CF
S1133E801340082BF7D1184B5B79DBB2164A40215B
S1133E908B43DBB25371C046134B9B79DBB21A00E0
S1133EA020231340F8D13B681800FFF725FF0E4B81
S1133EB05B79DBB20C4A40210B43DBB25371C04641
S1133EC0094B9B79DBB21A0020231340F8D000235E
S1133ED01800BD4602B080BD40510000805400006F
S1133EE064050000C45000000040064080B582B064
S1133EF000AF3A60FB1D021C1A70BB1D0A1C1A702D
S1133F003B68002B05D1144B144A15491548FEF79C
S1133F1071FEFB1D1B781800FFF750FE3A68BB1DAD
S1133F201B7811001800FFF781FF0F4B1B78DBB2E1
S1133F300D4A3F210B40DBB21370C0460A4B9B79FC
S1133F40DBB21A000C2313400C2BF7D1002318000A
S1133F50BD4602B080BDC0464051000094540000EC
S1133F600D060000C450000000400640074B10B589
S1133F700400002B02D0002100E000BF044B1B68AA
S1133F80002B00D09847200000F0B4FC0000000093
S1133F900CF2FF1F0CB430B5154B0C001D689DB01E
S1133FA0002908DA8B2301202B6040421DB030BC6D
S1133FB008BC02B0184700231B930B005A1E934100
S1133FC0CB1A049307930B4B029006900593280099
S1133FD021AB209A02A9019300F0AAF8431C01DA4C
S1133FE08B232B60002CE1D00022029B1A70DDE7AA
S1133FF00CF0FF1F0802FFFF03008218934200D158
S1134000704719700133F9E770B500260C4C0D4D5B
S1134010641BA410A64209D1002601F05FFA0A4CE1
S11340200A4D641BA410A64205D170BDB300EB5821
S113403098470136EEE7B300EB5898470136F2E7AC
S1134040FC540000FC54000000550000FC54000027
S113405070477047002310B59A4200D110BDCC5C64
S1134060C4540133F8E70000F0B58D6885B01E0034
S11340700C002B0002900392B54254D80C22885EA7
S11340809022D20010422CD00322096923685B1AC3
S1134090019363695343DA0FD318019A5F10731CB9
S11340A09B183A00BB4201D91F001A00400527D5CE
S11340B01100029800F052F9051E2AD0019A2169D4
S11340C0FFF7C8FFA289194B1A4080231343A38129
S11340D0019B2561ED18FB1A2560A36035003300B0
S11340E067611E0032000399206800F071FB002014
S11340F0A3685B1BA36023689B19236005B0F0BD14
S1134100029800F035FB051EE2D12169029800F007
S113411091FB0C230120029A40421360A28934339C
S11341201343A381EAE73500DCE7C0467FFBFFFFCA
S1134130F0B59FB002901C008B890F0016001B067F
S113414012D50B69002B0FD1402100F007F938601C
S11341503861002806D10C23029A136001204042E2
S11341601FB0F0BD40237B61002306AD6B6120339B
S11341706B761033AB76059434002378002B01D092
S1134180252B43D1A31B0393B4420BD03200390037
S11341900298FFF769FF013000D1A4E06B69039A2C
S11341A09B186B612378002B00D19CE00122002333
S11341B052426A6002AA533201342B60EB60AB6056
S11341C01370AB654F4E05222178300000F026FBBA
S11341D02A68611C00281BD1D30603D5202302A81A
S11341E053300370130703D52B2302A853300370F5
S11341F023782A2B13D000200A21EB682278303A46
S1134200092A4FD9002812D0EB6010E00134B4E73A
S11342100123801B834013430C002B60D2E7059BD2
S1134220181D1B680590002B36DBEB600C0023780F
S11342302E2B0CD163782A2B39D1059B02341A1DFD
S11342401B680592002B01DA01235B426B602E4E42
S113425003223000217800F0E1FA002806D0402340
S1134260801B83402A68013413432B602178062283
S11342702648297600F0D2FA00283AD024480028AB
S113428027D10722059B07339343083305936B69B2
S1134290661C1B186B616FE75B42EB6002231343E0
S11342A02B60C3E74B43012001349B18A6E700238E
S11342B00A201A0001346B6021783039092903D9A6
S11342C0002BC4D06A60C2E7424301230134521870
S11342D0F2E705AA009229003A000E4B029800E08A
S11342E000BF431CD3D1BB895B0600D536E76869A0
S11342F036E705AA009229003A00064B029800F01E
S11343001DF9EEE7A8540000AE540000B2540000BA
S1134310000000006940000070B50F4C0E002168D9
S11343200500002902D100F067FA2060310028005E
S113433000F062FA431C03D101246442200070BDE2
S11343400323C41C9C43A042F8D0211A280000F087
S113435053FA0130F2D1EFE714F2FF1FF7B503224D
S1134360CB1C9343083305001F000C2B34D20C27BD
S1134370B94233D8280000F0EBF9374E33681C00FB
S1134380002C2FD139002800FFF7C6FF0400431C7E
S11343905FD134680094009B002B4AD19C4252D0D8
S11343A023682800E3180099019300F025FA019B83
S11343B0834248D123682800FF1A3900FFF7ACFF75
S11343C0013040D02368DB19236033685A68002A1F
S11343D033D1009B336019E0002BC9DA0C232B6026
S11343E00020FEBD2168C91B20D40B290AD9E2197B
S11343F02760A34204D1326063681160536005E012
S11344005A60F9E76268A3420ED13260280000F0D6
S1134410A7F9200007220B30231D9043C21A9842AB
S1134420DFD01B1AA350DCE75A60EFE7230064686F
S1134430A6E7009C63680093ADE71A005B68A3429B
S1134440FBD10023DAE70C2328002B6000F088F965
S1134450C6E70760DAE7C04618F2FF1FF7B5160093
S113446001938A680B690C000090934200DA1300F0
S11344702200336043321278002A01D001333360C2
S113448023689B0602D5336802333360226806230F
S113449015001D401A4227D0230043331B785A1EAF
S11344A093412268920630D4220001990098089D15
S11344B04332A847013025D0062223680025134043
S11344C0042B05D13368E568ED1AEB43DB171D4077
S11344D0A3682269934201DD9B1AED180026B542B8
S11344E020D1002010E00135E36832689B1AAB420A
S11344F0D2DD2200012301990098089F1932B847A0
S11345000130F0D101204042FEBD3020E11843319A
S1134510087021005A1C45310978A218433202332D
S11345201170C1E72200012301990098089F1A32F3
S1134530B8470130E6D00136D1E70000F0B58BB0C2
S11345400793059006920A7E0C004331109B039159
S1134550782A09D8622A0BD8002A00D1BAE07A490D
S11345600491582A00D18EE0250042352A7022E0B9
S1134570100063381528F7D8FCF70AF816001F0056
S1134580F6FFF6FFF6FFF6FF1F00F6FFF6FFF6FF55
S1134590F6FF9F0035007E00F6FFF6FFB000F6FF41
S11345A03500F6FFF6FF820025001A684235111D1A
S11345B0196013682B7001239EE01A682068111D8E
S11345C01960050601D5166803E04006FBD50023F3
S11345D0D65E002E03DA2D23039A764213705A4BCB
S11345E00A27049313E01A68216840CA080602D413
S11345F0490600D5B6B21A60237E534A0A270492AC
S11346006F2B00D1023F2300002243331A706368EA
S1134610A360002B06DB04212268039D8A432260E9
S113462033430CD0039D30003900FCF741F8049B60
S1134630013D5B5C2B70330006009F42F3D9082FC9
S113464009D12368DB0706D5626823699A4202DC34
S11346503023013D2B70039B5B1B2361079B2100CF
S113466000930598069B09AAFFF7F8FE013048D18C
S1134670012040420BB0F0BD202221680A43226091
S1134680782232490491210045310A701968226860
S113469040C9100602D4500600D5B6B21960D3073B
S11346A002D5202313432360002E01D01027AAE74C
S11346B02022236893432360F8E71A682568101DB5
S11346C06169186013682E0601D5196002E06D0651
S11346D0FBD519800023039D2361BFE71A68111DD0
S11346E01960156800212800626800F097F8002816
S11346F001D0401B6060636823610023039A137038
S1134700ACE72A00236906990598079DA84701305C
S1134710AED023689B0715D4099BE0689842A9DAB8
S11347201800A7E72200012306990598079E19326D
S1134730B04701309CD00135E368099A9B1AAB421B
S1134740F0DCE9E70025F7E7B9540000CA5400009B
S113475010B50248FFF77CFC10BDC04610F2FF1FE5
S113476010B50248FFF775FC10BDC04610F2FF1FDC
S1134770F7B506000C001500002905D11100FFF75C
S1134780EDFD04002000FEBD002A03D100F052F824
S11347902C00F7E700F098F80700854202D8430898
S11347A0AB42EFD329003000FFF7D8FD0190002879
S11347B001D1019CE6E72A00BD4200D93A0021005C
S11347C00198FFF747FC2100300000F033F8F0E7D0
S11347D010B5884202D98B18984209D300239A4213
S11347E008D0CC5CC4540133F9E7013A8B5C8354A0
S11347F0002AFAD110BD0000002370B5064C050054
S11348000800236000F068F8431C03D12368002BE0
S113481000D02B6070BDC0461CF2FF1FC9B28218C5
S1134820904201D10020704703788B42FBD00130C5
S1134830F6E7000070B50500002910D00C1F2368AE
S1134840002B00DAE4182800FFF782FF1D4A1368E2
S1134850002B05D1636014602800FFF781FF70BD51
S1134860A34208D9206821188B42F3D119685B68E8
S113487009182160EEE71A005B68002B01D0A342FF
S1134880F9D911685018A0420BD1206809185018A2
S113489011608342E0D118685B684118116053606D
S11348A0DAE7A04202D90C232B60D5E7206821184F
S11348B08B4203D119685B680918216063605460F6
S11348C0CAE7C04618F2FF1F0B1F1B68181F002BF6
S11348D001DA0B58C0187047044A1368002B03D040
S11348E01818106018007047014BF9E720F2FF1FF9
S11348F028F2FF1FFEE7C046696E7374616E63653C
S1134900203C2041525241595F53495A4528735F14
S11349106C70736369426173657329002F55736505
S113492072732F6173686F6B70617564656C61700D
S113493072696C2F494545452050726F6A656374EE
S1134940732F53444B5F325F325F305F4652444DA6
S11349502D4B4C32365A2F646576696365732F4D3F
S11349604B4C32365A342F647269766572732F66F3
S1134970736C5F6C707363692E63000068616E64AE
S11349806C6500006461746100000000636F6E6612
S113499069670000636F6E6669672D3E62617564C6
S11349A0526174655F427073000000006261756457
S11349B0526174655F4270730000000072696E6733
S11349C042756666657200007866657200000000D4
S11349D0786665722D3E6461746153697A6500007E
S11349E0786665722D3E646174610000636F756E54
S11349F074000000696E7374616E6365203C2075F9
S1134A006172744172726179436F756E7400000053
S1134A102F55736572732F6173686F6B7061756462
S1134A20656C617072696C2F494545452050726F01
S1134A306A656374732F53444B5F325F325F305F38
S1134A404652444D2D4B4C32365A2F646576696379
S1134A5065732F4D4B4C32365A342F647269766528
S1134A6072732F66736C5F756172742E630000003D
S1134A7068616E646C650000636F6E666967000050
S1134A80636F6E6669672D3E626175645261746519
S1134A905F42707300000000626175645261746566
S1134AA05F427073000000006461746100000000E4
S1134AB072696E6742756666657200007866657233
S1134AC000000000786665722D3E6461746153696C
S1134AD07A650000786665722D3E64617461000039
S1134AE0636F756E74000000696E7374616E636544
S1134AF0203C2041525241595F53495A4528735F23
S1134B006770696F42617365732900002F5573657F
S1134B1072732F6173686F6B70617564656C61701B
S1134B2072696C2F494545452050726F6A656374FC
S1134B30732F53444B5F325F325F305F4652444DB4
S1134B402D4B4C32365A2F646576696365732F4D4D
S1134B504B4C32365A342F647269766572732F6601
S1134B60736C5F6770696F2E63000000636F6E661D
S1134B7069670000696E7374616E6365203C20414F
S1134B80525241595F53495A4528735F66677069A9
S1134B906F42617365732900696E7374616E636536
S1134BA0203C2041525241595F53495A4528735F72
S1134BB06C70746D72426173657329002F5573654F
S1134BC072732F6173686F6B70617564656C61706B
S1134BD072696C2F494545452050726F6A6563744C
S1134BE0732F53444B5F325F325F305F4652444D04
S1134BF02D4B4C32365A2F646576696365732F4D9D
S1134C004B4C32365A342F647269766572732F6650
S1134C10736C5F6C70746D722E630000636F6E66EC
S1134C206967000001010000696E7374616E636559
S1134C30203C2041525241595F53495A4528735FE1
S1134C406932634261736573290000002F557365EF
S1134C5072732F6173686F6B70617564656C6170DA
S1134C6072696C2F494545452050726F6A656374BB
S1134C70732F53444B5F325F325F305F4652444D73
S1134C802D4B4C32365A2F646576696365732F4D0C
S1134C904B4C32365A342F647269766572732F66C0
S1134CA0736C5F6932632E63000000006D6173747E
S1134CB06572436F6E6669672026262073726343AC
S1134CC06C6F636B5F487A006D6173746572436FD8
S1134CD06E66696700000000786665720000000077
S1134CE068616E646C65000069326348616E646C6F
S1134CF065000000736C617665436F6E66696700DA
S1134D00736C617665436F6E6669672D3E736C6183
S1134D10766541646472657373203C20736C6176BC
S1134D2065436F6E6669672D3E7570706572416488
S1134D306472657373000000696E7374616E6365F9
S1134D40203C2041525241595F53495A4528735FD0
S1134D506164633136426173657329002F5573654D
S1134D6072732F6173686F6B70617564656C6170C9
S1134D7072696C2F494545452050726F6A656374AA
S1134D80732F53444B5F325F325F305F4652444D62
S1134D902D4B4C32365A2F646576696365732F4DFB
S1134DA04B4C32365A342F647269766572732F66AF
S1134DB0736C5F61646331362E6300004E554C4C56
S1134DC020213D20636F6E66696700006368616E31
S1134DD06E656C47726F7570203C204144435F538D
S1134DE043315F434F554E54000000007469636BB8
S1134DF073203E20300000002F55736572732F61BD
S1134E0073686F6B70617564656C617072696C2F27
S1134E10494545452050726F6A656374732F465245
S1134E20444D5F4B4C32365A5F50726F6A656374FF
S1134E30732F5034445F4C6F775F506F7765725FA8
S1134E40576972656C6573735F53656E736F725FD8
S1134E504E6F64652F64656D6F5F636F64652F309B
S1134E60325F66756C6C5F73656E736F725F6E6FC5
S1134E7064655F776974685F626C7565746F6F747D
S1134E80682F61726D6763632F2E2E2F2E2E2F2EA7
S1134E902E2F2E2E2F2E2E2F53444B5F325F325F38
S1134EA0305F4652444D2D4B4C32365A2F64657652
S1134EB0696365732F4D4B4C32365A342F647269D3
S1134EC0766572732F66736C5F6C70746D722E6886
S1134ED0000000006368616E6E656C47726F7570E8
S1134EE0203C204144435F525F434F554E540000E1
S1134EF02F55736572732F6173686F6B706175647E
S1134F00656C617072696C2F494545452050726F1C
S1134F106A656374732F4652444D5F4B4C32365A64
S1134F205F50726F6A656374732F5034445F4C6FC3
S1134F30775F506F7765725F576972656C657373DD
S1134F405F53656E736F725F4E6F64652F64656D3A
S1134F506F5F636F64652F30325F66756C6C5F736F
S1134F60656E736F725F6E6F64655F776974685F97
S1134F70626C7565746F6F74682F61726D676363BB
S1134F802F2E2E2F2E2E2F2E2E2F2E2E2F2E2E2F37
S1134F9053444B5F325F325F305F4652444D2D4B7A
S1134FA04C32365A2F646576696365732F4D4B4CCA
S1134FB032365A342F647269766572732F66736C55
S1134FC05F61646331362E680000000025642C257F
S1134FD0642C25642C25750D0A0000000D0A3D3D46
S1134FE03D2050342D442053657373696F6E203215
S1134FF0207265666572656E63653A2066756C6CD1
S113500020776972656C6573732073656E736F7254
S1135010206E6F6465203D3D3D0D0A0057616B694C
S11350206E67206576657279202575207365636FD8
S11350306E64732C207472616E736D697474696E1E
S11350406720582C592C5A2C6C69676874206F7629
S113505065722055415254312F48432D30352E0D61
S11350600A0D0A0073656E743A2025642C25642C9D
S113507025642C25750D0A0041535345525420458F
S113508052524F52202220257320223A2066696C06
S1135090652022257322204C696E65202225642216
S11350A02066756E6374696F6E206E616D65202273
S11350B0257322200A000000675F7874616C304613
S11350C0726571002F55736572732F6173686F6B0E
S11350D070617564656C617072696C2F49454545F2
S11350E02050726F6A656374732F53444B5F325F51
S11350F0325F305F4652444D2D4B4C32365A2F644A
S11351006576696365732F4D4B4C32365A342F6480
S11351107269766572732F66736C5F636C6F636B11
S11351202E630000675F7874616C33324672657178
S1135130000000006D6367706C6C30636C6B000082
S1135140636F6E66696700004C505343495F47655F
S113515074496E7374616E63650000004C50534370
S1135160495F496E697400004C505343495F476579
S11351707444656661756C74436F6E66696700009C
S11351804C505343495F5772697465426C6F636B4B
S1135190696E67004C505343495F52656164426CC9
S11351A06F636B696E6700000000000000B006408A
S11351B000C00640000000000B0034100C00341046
S11351C0554152545F476574496E7374616E6365EB
S11351D000000000554152545F496E69740000009C
S11351E0554152545F47657444656661756C7443F8
S11351F06F6E666967000000554152545F526561E5
S113520064426C6F636B696E670000004750494FDE
S11352105F50696E496E6974000000004C50544D33
S1135220525F476574496E7374616E636500000074
S11352304C50544D525F496E697400004C50544DAB
S1135240525F47657444656661756C74436F6E663E
S1135250696700001400160018001A001C001E00E4
S1135260220028001C002000240028002C0030000C
S11352703800440030003800400048005000580016
S11352806800800050006000700080009000A00062
S1135290C000F000A000C000E000000120014001B7
S11352A08001E00140018001C0010002400280024F
S11352B00003C0038002000380030004800400058F
S11352C00006800700050006000700080009000A20
S11352D0000C000F00600640007006400600341009
S11352E0070034104932435F476574496E73746133
S11352F06E6365004932435F4D6173746572496E34
S1135300697400004932435F4D6173746572476587
S11353107444656661756C74436F6E6669670000FA
S11353204932435F4D61737465725472616E736682
S11353306572426C6F636B696E6700004144433170
S1135340365F476574496E7374616E63650000006F
S113535041444331365F496E69740000414443312E
S1135360365F47657444656661756C74436F6E6639
S11353706967000041444331365F53657443686193
S11353806E6E656C436F6E6669670000414443311D
S1135390365F4765744368616E6E656C53746174FF
S11353A07573466C616773004C50544D525F53657E
S11353B07454696D6572506572696F640000000011
S11353C01C1D1E1F41444331365F476574436861A9
S11353D06E6E656C436F6E76657273696F6E56613F
S11353E06C75650007020000000000000100000069
S11353F0010300000000011000127A000004800084
S1135400434C4F434B5F4765744D63674578744322
S11354106C6B467265710000434C4F434B5F4765AC
S1135420744F7363304572436C6B46726571000050
S1135430434C4F434B5F476574457233326B436C47
S11354406B467265710000008002DC020005B8053D
S113545080079508000A710B434C4F434B5F476527
S113546074506C6C3046726571000000434C4F43BD
S11354704B5F456E61626C65506C6C3000000000DF
S1135480434C4F434B5F5365745062654D6F646585
S113549000000000434C4F434B5F426F6F74546FE6
S11354A05065654D6F646500232D302B2000686CBA
S11354B04C00656667454647003031323334353633
S11354C0373839414243444546003031323334356C
S11354D0363738396162636465660000F8B5C046E2
S11354E0F8BC08BC9E467047F8B5C046F8BC08BC7A
S10754F09E46704719
S10B54F41CAFFF7F0100000062
S10754FC050900009A
S1075500D9080000C2
S1135504000040010080000000093D0010F0FF1F6E
S113551400000000D4F0FF1F3CF1FF1FA4F1FF1FA3
S11355240000000000000000000000000000000073
S11355340000000000000000000000000000000063
S11355440000000000000000000000000000000053
S10F555400000000000000000000000047
S903049167
